{
  "address": "0x15aB2Cc164d7817Ac2a5b2A6362AbeE088B7F2df",
  "abi": [
    {
      "inputs": [
        {
          "internalType": "contract IERC20",
          "name": "_oldIbToken",
          "type": "address"
        },
        {
          "internalType": "address",
          "name": "_lzEndpoint",
          "type": "address"
        }
      ],
      "stateMutability": "nonpayable",
      "type": "constructor"
    },
    {
      "anonymous": false,
      "inputs": [
        {
          "indexed": true,
          "internalType": "address",
          "name": "owner",
          "type": "address"
        },
        {
          "indexed": true,
          "internalType": "address",
          "name": "spender",
          "type": "address"
        },
        {
          "indexed": false,
          "internalType": "uint256",
          "name": "value",
          "type": "uint256"
        }
      ],
      "name": "Approval",
      "type": "event"
    },
    {
      "anonymous": false,
      "inputs": [
        {
          "indexed": false,
          "internalType": "uint16",
          "name": "_srcChainId",
          "type": "uint16"
        },
        {
          "indexed": false,
          "internalType": "bytes",
          "name": "_srcAddress",
          "type": "bytes"
        },
        {
          "indexed": false,
          "internalType": "uint64",
          "name": "_nonce",
          "type": "uint64"
        },
        {
          "indexed": false,
          "internalType": "bytes",
          "name": "_payload",
          "type": "bytes"
        },
        {
          "indexed": false,
          "internalType": "bytes",
          "name": "_reason",
          "type": "bytes"
        }
      ],
      "name": "MessageFailed",
      "type": "event"
    },
    {
      "anonymous": false,
      "inputs": [
        {
          "indexed": true,
          "internalType": "address",
          "name": "previousOwner",
          "type": "address"
        },
        {
          "indexed": true,
          "internalType": "address",
          "name": "newOwner",
          "type": "address"
        }
      ],
      "name": "OwnershipTransferred",
      "type": "event"
    },
    {
      "anonymous": false,
      "inputs": [
        {
          "indexed": true,
          "internalType": "uint16",
          "name": "_srcChainId",
          "type": "uint16"
        },
        {
          "indexed": true,
          "internalType": "address",
          "name": "_to",
          "type": "address"
        },
        {
          "indexed": false,
          "internalType": "uint256",
          "name": "_amount",
          "type": "uint256"
        }
      ],
      "name": "ReceiveFromChain",
      "type": "event"
    },
    {
      "anonymous": false,
      "inputs": [
        {
          "indexed": false,
          "internalType": "uint16",
          "name": "_srcChainId",
          "type": "uint16"
        },
        {
          "indexed": false,
          "internalType": "bytes",
          "name": "_srcAddress",
          "type": "bytes"
        },
        {
          "indexed": false,
          "internalType": "uint64",
          "name": "_nonce",
          "type": "uint64"
        },
        {
          "indexed": false,
          "internalType": "bytes32",
          "name": "_payloadHash",
          "type": "bytes32"
        }
      ],
      "name": "RetryMessageSuccess",
      "type": "event"
    },
    {
      "anonymous": false,
      "inputs": [
        {
          "indexed": true,
          "internalType": "uint16",
          "name": "_dstChainId",
          "type": "uint16"
        },
        {
          "indexed": true,
          "internalType": "address",
          "name": "_from",
          "type": "address"
        },
        {
          "indexed": false,
          "internalType": "bytes",
          "name": "_toAddress",
          "type": "bytes"
        },
        {
          "indexed": false,
          "internalType": "uint256",
          "name": "_amount",
          "type": "uint256"
        }
      ],
      "name": "SendToChain",
      "type": "event"
    },
    {
      "anonymous": false,
      "inputs": [
        {
          "indexed": false,
          "internalType": "uint16",
          "name": "_dstChainId",
          "type": "uint16"
        },
        {
          "indexed": false,
          "internalType": "uint16",
          "name": "_type",
          "type": "uint16"
        },
        {
          "indexed": false,
          "internalType": "uint256",
          "name": "_minDstGas",
          "type": "uint256"
        }
      ],
      "name": "SetMinDstGas",
      "type": "event"
    },
    {
      "anonymous": false,
      "inputs": [
        {
          "indexed": false,
          "internalType": "address",
          "name": "precrime",
          "type": "address"
        }
      ],
      "name": "SetPrecrime",
      "type": "event"
    },
    {
      "anonymous": false,
      "inputs": [
        {
          "indexed": false,
          "internalType": "uint16",
          "name": "_remoteChainId",
          "type": "uint16"
        },
        {
          "indexed": false,
          "internalType": "bytes",
          "name": "_path",
          "type": "bytes"
        }
      ],
      "name": "SetTrustedRemote",
      "type": "event"
    },
    {
      "anonymous": false,
      "inputs": [
        {
          "indexed": false,
          "internalType": "uint16",
          "name": "_remoteChainId",
          "type": "uint16"
        },
        {
          "indexed": false,
          "internalType": "bytes",
          "name": "_remoteAddress",
          "type": "bytes"
        }
      ],
      "name": "SetTrustedRemoteAddress",
      "type": "event"
    },
    {
      "anonymous": false,
      "inputs": [
        {
          "indexed": false,
          "internalType": "bool",
          "name": "_useCustomAdapterParams",
          "type": "bool"
        }
      ],
      "name": "SetUseCustomAdapterParams",
      "type": "event"
    },
    {
      "anonymous": false,
      "inputs": [
        {
          "indexed": true,
          "internalType": "address",
          "name": "from",
          "type": "address"
        },
        {
          "indexed": true,
          "internalType": "address",
          "name": "to",
          "type": "address"
        },
        {
          "indexed": false,
          "internalType": "uint256",
          "name": "value",
          "type": "uint256"
        }
      ],
      "name": "Transfer",
      "type": "event"
    },
    {
      "inputs": [],
      "name": "DEFAULT_PAYLOAD_SIZE_LIMIT",
      "outputs": [
        {
          "internalType": "uint256",
          "name": "",
          "type": "uint256"
        }
      ],
      "stateMutability": "view",
      "type": "function"
    },
    {
      "inputs": [],
      "name": "NO_EXTRA_GAS",
      "outputs": [
        {
          "internalType": "uint256",
          "name": "",
          "type": "uint256"
        }
      ],
      "stateMutability": "view",
      "type": "function"
    },
    {
      "inputs": [],
      "name": "PT_SEND",
      "outputs": [
        {
          "internalType": "uint16",
          "name": "",
          "type": "uint16"
        }
      ],
      "stateMutability": "view",
      "type": "function"
    },
    {
      "inputs": [
        {
          "internalType": "address",
          "name": "owner",
          "type": "address"
        },
        {
          "internalType": "address",
          "name": "spender",
          "type": "address"
        }
      ],
      "name": "allowance",
      "outputs": [
        {
          "internalType": "uint256",
          "name": "",
          "type": "uint256"
        }
      ],
      "stateMutability": "view",
      "type": "function"
    },
    {
      "inputs": [
        {
          "internalType": "address",
          "name": "spender",
          "type": "address"
        },
        {
          "internalType": "uint256",
          "name": "amount",
          "type": "uint256"
        }
      ],
      "name": "approve",
      "outputs": [
        {
          "internalType": "bool",
          "name": "",
          "type": "bool"
        }
      ],
      "stateMutability": "nonpayable",
      "type": "function"
    },
    {
      "inputs": [
        {
          "internalType": "address",
          "name": "account",
          "type": "address"
        }
      ],
      "name": "balanceOf",
      "outputs": [
        {
          "internalType": "uint256",
          "name": "",
          "type": "uint256"
        }
      ],
      "stateMutability": "view",
      "type": "function"
    },
    {
      "inputs": [],
      "name": "circulatingSupply",
      "outputs": [
        {
          "internalType": "uint256",
          "name": "",
          "type": "uint256"
        }
      ],
      "stateMutability": "view",
      "type": "function"
    },
    {
      "inputs": [],
      "name": "decimals",
      "outputs": [
        {
          "internalType": "uint8",
          "name": "",
          "type": "uint8"
        }
      ],
      "stateMutability": "pure",
      "type": "function"
    },
    {
      "inputs": [
        {
          "internalType": "address",
          "name": "spender",
          "type": "address"
        },
        {
          "internalType": "uint256",
          "name": "subtractedValue",
          "type": "uint256"
        }
      ],
      "name": "decreaseAllowance",
      "outputs": [
        {
          "internalType": "bool",
          "name": "",
          "type": "bool"
        }
      ],
      "stateMutability": "nonpayable",
      "type": "function"
    },
    {
      "inputs": [],
      "name": "defaultAdapterParams",
      "outputs": [
        {
          "internalType": "bytes",
          "name": "",
          "type": "bytes"
        }
      ],
      "stateMutability": "view",
      "type": "function"
    },
    {
      "inputs": [],
      "name": "destChainId",
      "outputs": [
        {
          "internalType": "uint16",
          "name": "",
          "type": "uint16"
        }
      ],
      "stateMutability": "view",
      "type": "function"
    },
    {
      "inputs": [
        {
          "internalType": "uint16",
          "name": "_dstChainId",
          "type": "uint16"
        },
        {
          "internalType": "bytes",
          "name": "_toAddress",
          "type": "bytes"
        },
        {
          "internalType": "uint256",
          "name": "_amount",
          "type": "uint256"
        },
        {
          "internalType": "bool",
          "name": "_useZro",
          "type": "bool"
        },
        {
          "internalType": "bytes",
          "name": "_adapterParams",
          "type": "bytes"
        }
      ],
      "name": "estimateSendFee",
      "outputs": [
        {
          "internalType": "uint256",
          "name": "nativeFee",
          "type": "uint256"
        },
        {
          "internalType": "uint256",
          "name": "zroFee",
          "type": "uint256"
        }
      ],
      "stateMutability": "view",
      "type": "function"
    },
    {
      "inputs": [
        {
          "internalType": "uint16",
          "name": "",
          "type": "uint16"
        },
        {
          "internalType": "bytes",
          "name": "",
          "type": "bytes"
        },
        {
          "internalType": "uint64",
          "name": "",
          "type": "uint64"
        }
      ],
      "name": "failedMessages",
      "outputs": [
        {
          "internalType": "bytes32",
          "name": "",
          "type": "bytes32"
        }
      ],
      "stateMutability": "view",
      "type": "function"
    },
    {
      "inputs": [
        {
          "internalType": "uint16",
          "name": "_srcChainId",
          "type": "uint16"
        },
        {
          "internalType": "bytes",
          "name": "_srcAddress",
          "type": "bytes"
        }
      ],
      "name": "forceResumeReceive",
      "outputs": [],
      "stateMutability": "nonpayable",
      "type": "function"
    },
    {
      "inputs": [
        {
          "internalType": "uint16",
          "name": "_version",
          "type": "uint16"
        },
        {
          "internalType": "uint16",
          "name": "_chainId",
          "type": "uint16"
        },
        {
          "internalType": "address",
          "name": "",
          "type": "address"
        },
        {
          "internalType": "uint256",
          "name": "_configType",
          "type": "uint256"
        }
      ],
      "name": "getConfig",
      "outputs": [
        {
          "internalType": "bytes",
          "name": "",
          "type": "bytes"
        }
      ],
      "stateMutability": "view",
      "type": "function"
    },
    {
      "inputs": [
        {
          "internalType": "uint16",
          "name": "_remoteChainId",
          "type": "uint16"
        }
      ],
      "name": "getTrustedRemoteAddress",
      "outputs": [
        {
          "internalType": "bytes",
          "name": "",
          "type": "bytes"
        }
      ],
      "stateMutability": "view",
      "type": "function"
    },
    {
      "inputs": [
        {
          "internalType": "address",
          "name": "spender",
          "type": "address"
        },
        {
          "internalType": "uint256",
          "name": "addedValue",
          "type": "uint256"
        }
      ],
      "name": "increaseAllowance",
      "outputs": [
        {
          "internalType": "bool",
          "name": "",
          "type": "bool"
        }
      ],
      "stateMutability": "nonpayable",
      "type": "function"
    },
    {
      "inputs": [
        {
          "internalType": "uint16",
          "name": "_srcChainId",
          "type": "uint16"
        },
        {
          "internalType": "bytes",
          "name": "_srcAddress",
          "type": "bytes"
        }
      ],
      "name": "isTrustedRemote",
      "outputs": [
        {
          "internalType": "bool",
          "name": "",
          "type": "bool"
        }
      ],
      "stateMutability": "view",
      "type": "function"
    },
    {
      "inputs": [],
      "name": "lzEndpoint",
      "outputs": [
        {
          "internalType": "contract ILayerZeroEndpoint",
          "name": "",
          "type": "address"
        }
      ],
      "stateMutability": "view",
      "type": "function"
    },
    {
      "inputs": [
        {
          "internalType": "uint16",
          "name": "_srcChainId",
          "type": "uint16"
        },
        {
          "internalType": "bytes",
          "name": "_srcAddress",
          "type": "bytes"
        },
        {
          "internalType": "uint64",
          "name": "_nonce",
          "type": "uint64"
        },
        {
          "internalType": "bytes",
          "name": "_payload",
          "type": "bytes"
        }
      ],
      "name": "lzReceive",
      "outputs": [],
      "stateMutability": "nonpayable",
      "type": "function"
    },
    {
      "inputs": [
        {
          "internalType": "uint256",
          "name": "amount",
          "type": "uint256"
        }
      ],
      "name": "migrate",
      "outputs": [],
      "stateMutability": "payable",
      "type": "function"
    },
    {
      "inputs": [
        {
          "internalType": "uint256",
          "name": "amount",
          "type": "uint256"
        },
        {
          "internalType": "bytes",
          "name": "adapterParams",
          "type": "bytes"
        }
      ],
      "name": "migrateWithAdapter",
      "outputs": [],
      "stateMutability": "payable",
      "type": "function"
    },
    {
      "inputs": [
        {
          "internalType": "uint16",
          "name": "",
          "type": "uint16"
        },
        {
          "internalType": "uint16",
          "name": "",
          "type": "uint16"
        }
      ],
      "name": "minDstGasLookup",
      "outputs": [
        {
          "internalType": "uint256",
          "name": "",
          "type": "uint256"
        }
      ],
      "stateMutability": "view",
      "type": "function"
    },
    {
      "inputs": [],
      "name": "name",
      "outputs": [
        {
          "internalType": "string",
          "name": "",
          "type": "string"
        }
      ],
      "stateMutability": "view",
      "type": "function"
    },
    {
      "inputs": [
        {
          "internalType": "uint16",
          "name": "_srcChainId",
          "type": "uint16"
        },
        {
          "internalType": "bytes",
          "name": "_srcAddress",
          "type": "bytes"
        },
        {
          "internalType": "uint64",
          "name": "_nonce",
          "type": "uint64"
        },
        {
          "internalType": "bytes",
          "name": "_payload",
          "type": "bytes"
        }
      ],
      "name": "nonblockingLzReceive",
      "outputs": [],
      "stateMutability": "nonpayable",
      "type": "function"
    },
    {
      "inputs": [],
      "name": "oldIbToken",
      "outputs": [
        {
          "internalType": "contract IERC20",
          "name": "",
          "type": "address"
        }
      ],
      "stateMutability": "view",
      "type": "function"
    },
    {
      "inputs": [],
      "name": "owner",
      "outputs": [
        {
          "internalType": "address",
          "name": "",
          "type": "address"
        }
      ],
      "stateMutability": "view",
      "type": "function"
    },
    {
      "inputs": [
        {
          "internalType": "uint16",
          "name": "",
          "type": "uint16"
        }
      ],
      "name": "payloadSizeLimitLookup",
      "outputs": [
        {
          "internalType": "uint256",
          "name": "",
          "type": "uint256"
        }
      ],
      "stateMutability": "view",
      "type": "function"
    },
    {
      "inputs": [],
      "name": "precrime",
      "outputs": [
        {
          "internalType": "address",
          "name": "",
          "type": "address"
        }
      ],
      "stateMutability": "view",
      "type": "function"
    },
    {
      "inputs": [],
      "name": "renounceOwnership",
      "outputs": [],
      "stateMutability": "nonpayable",
      "type": "function"
    },
    {
      "inputs": [
        {
          "internalType": "uint16",
          "name": "_srcChainId",
          "type": "uint16"
        },
        {
          "internalType": "bytes",
          "name": "_srcAddress",
          "type": "bytes"
        },
        {
          "internalType": "uint64",
          "name": "_nonce",
          "type": "uint64"
        },
        {
          "internalType": "bytes",
          "name": "_payload",
          "type": "bytes"
        }
      ],
      "name": "retryMessage",
      "outputs": [],
      "stateMutability": "payable",
      "type": "function"
    },
    {
      "inputs": [
        {
          "internalType": "address",
          "name": "token",
          "type": "address"
        },
        {
          "internalType": "uint256",
          "name": "amount",
          "type": "uint256"
        }
      ],
      "name": "seize",
      "outputs": [],
      "stateMutability": "nonpayable",
      "type": "function"
    },
    {
      "inputs": [
        {
          "internalType": "address",
          "name": "_from",
          "type": "address"
        },
        {
          "internalType": "uint16",
          "name": "_dstChainId",
          "type": "uint16"
        },
        {
          "internalType": "bytes",
          "name": "_toAddress",
          "type": "bytes"
        },
        {
          "internalType": "uint256",
          "name": "_amount",
          "type": "uint256"
        },
        {
          "internalType": "address payable",
          "name": "_refundAddress",
          "type": "address"
        },
        {
          "internalType": "address",
          "name": "_zroPaymentAddress",
          "type": "address"
        },
        {
          "internalType": "bytes",
          "name": "_adapterParams",
          "type": "bytes"
        }
      ],
      "name": "sendFrom",
      "outputs": [],
      "stateMutability": "payable",
      "type": "function"
    },
    {
      "inputs": [
        {
          "internalType": "uint16",
          "name": "_version",
          "type": "uint16"
        },
        {
          "internalType": "uint16",
          "name": "_chainId",
          "type": "uint16"
        },
        {
          "internalType": "uint256",
          "name": "_configType",
          "type": "uint256"
        },
        {
          "internalType": "bytes",
          "name": "_config",
          "type": "bytes"
        }
      ],
      "name": "setConfig",
      "outputs": [],
      "stateMutability": "nonpayable",
      "type": "function"
    },
    {
      "inputs": [
        {
          "internalType": "bytes",
          "name": "_defaultAdapterParams",
          "type": "bytes"
        }
      ],
      "name": "setDefaultAdapterParams",
      "outputs": [],
      "stateMutability": "nonpayable",
      "type": "function"
    },
    {
      "inputs": [
        {
          "internalType": "uint16",
          "name": "_destChainId",
          "type": "uint16"
        }
      ],
      "name": "setDestChainId",
      "outputs": [],
      "stateMutability": "nonpayable",
      "type": "function"
    },
    {
      "inputs": [
        {
          "internalType": "uint16",
          "name": "_dstChainId",
          "type": "uint16"
        },
        {
          "internalType": "uint16",
          "name": "_packetType",
          "type": "uint16"
        },
        {
          "internalType": "uint256",
          "name": "_minGas",
          "type": "uint256"
        }
      ],
      "name": "setMinDstGas",
      "outputs": [],
      "stateMutability": "nonpayable",
      "type": "function"
    },
    {
      "inputs": [
        {
          "internalType": "uint16",
          "name": "_dstChainId",
          "type": "uint16"
        },
        {
          "internalType": "uint256",
          "name": "_size",
          "type": "uint256"
        }
      ],
      "name": "setPayloadSizeLimit",
      "outputs": [],
      "stateMutability": "nonpayable",
      "type": "function"
    },
    {
      "inputs": [
        {
          "internalType": "address",
          "name": "_precrime",
          "type": "address"
        }
      ],
      "name": "setPrecrime",
      "outputs": [],
      "stateMutability": "nonpayable",
      "type": "function"
    },
    {
      "inputs": [
        {
          "internalType": "uint16",
          "name": "_version",
          "type": "uint16"
        }
      ],
      "name": "setReceiveVersion",
      "outputs": [],
      "stateMutability": "nonpayable",
      "type": "function"
    },
    {
      "inputs": [
        {
          "internalType": "uint16",
          "name": "_version",
          "type": "uint16"
        }
      ],
      "name": "setSendVersion",
      "outputs": [],
      "stateMutability": "nonpayable",
      "type": "function"
    },
    {
      "inputs": [
        {
          "internalType": "uint16",
          "name": "_remoteChainId",
          "type": "uint16"
        },
        {
          "internalType": "bytes",
          "name": "_path",
          "type": "bytes"
        }
      ],
      "name": "setTrustedRemote",
      "outputs": [],
      "stateMutability": "nonpayable",
      "type": "function"
    },
    {
      "inputs": [
        {
          "internalType": "uint16",
          "name": "_remoteChainId",
          "type": "uint16"
        },
        {
          "internalType": "bytes",
          "name": "_remoteAddress",
          "type": "bytes"
        }
      ],
      "name": "setTrustedRemoteAddress",
      "outputs": [],
      "stateMutability": "nonpayable",
      "type": "function"
    },
    {
      "inputs": [
        {
          "internalType": "bool",
          "name": "_useCustomAdapterParams",
          "type": "bool"
        }
      ],
      "name": "setUseCustomAdapterParams",
      "outputs": [],
      "stateMutability": "nonpayable",
      "type": "function"
    },
    {
      "inputs": [
        {
          "internalType": "address",
          "name": "_zroPaymentAddress",
          "type": "address"
        }
      ],
      "name": "setZroPaymentAddress",
      "outputs": [],
      "stateMutability": "nonpayable",
      "type": "function"
    },
    {
      "inputs": [
        {
          "internalType": "bytes4",
          "name": "interfaceId",
          "type": "bytes4"
        }
      ],
      "name": "supportsInterface",
      "outputs": [
        {
          "internalType": "bool",
          "name": "",
          "type": "bool"
        }
      ],
      "stateMutability": "view",
      "type": "function"
    },
    {
      "inputs": [],
      "name": "symbol",
      "outputs": [
        {
          "internalType": "string",
          "name": "",
          "type": "string"
        }
      ],
      "stateMutability": "view",
      "type": "function"
    },
    {
      "inputs": [],
      "name": "token",
      "outputs": [
        {
          "internalType": "address",
          "name": "",
          "type": "address"
        }
      ],
      "stateMutability": "view",
      "type": "function"
    },
    {
      "inputs": [],
      "name": "totalSupply",
      "outputs": [
        {
          "internalType": "uint256",
          "name": "",
          "type": "uint256"
        }
      ],
      "stateMutability": "view",
      "type": "function"
    },
    {
      "inputs": [
        {
          "internalType": "address",
          "name": "to",
          "type": "address"
        },
        {
          "internalType": "uint256",
          "name": "amount",
          "type": "uint256"
        }
      ],
      "name": "transfer",
      "outputs": [
        {
          "internalType": "bool",
          "name": "",
          "type": "bool"
        }
      ],
      "stateMutability": "nonpayable",
      "type": "function"
    },
    {
      "inputs": [
        {
          "internalType": "address",
          "name": "from",
          "type": "address"
        },
        {
          "internalType": "address",
          "name": "to",
          "type": "address"
        },
        {
          "internalType": "uint256",
          "name": "amount",
          "type": "uint256"
        }
      ],
      "name": "transferFrom",
      "outputs": [
        {
          "internalType": "bool",
          "name": "",
          "type": "bool"
        }
      ],
      "stateMutability": "nonpayable",
      "type": "function"
    },
    {
      "inputs": [
        {
          "internalType": "address",
          "name": "newOwner",
          "type": "address"
        }
      ],
      "name": "transferOwnership",
      "outputs": [],
      "stateMutability": "nonpayable",
      "type": "function"
    },
    {
      "inputs": [
        {
          "internalType": "uint16",
          "name": "",
          "type": "uint16"
        }
      ],
      "name": "trustedRemoteLookup",
      "outputs": [
        {
          "internalType": "bytes",
          "name": "",
          "type": "bytes"
        }
      ],
      "stateMutability": "view",
      "type": "function"
    },
    {
      "inputs": [],
      "name": "useCustomAdapterParams",
      "outputs": [
        {
          "internalType": "bool",
          "name": "",
          "type": "bool"
        }
      ],
      "stateMutability": "view",
      "type": "function"
    },
    {
      "inputs": [],
      "name": "zroPaymentAddress",
      "outputs": [
        {
          "internalType": "address",
          "name": "",
          "type": "address"
        }
      ],
      "stateMutability": "view",
      "type": "function"
    }
  ],
  "transactionHash": "0xa35730e0f522e2817bdca6e1b553f20f4c8f6d1bfa34b3909d4c7b838cc91ffa",
  "args": [
    "0x00a35FD824c717879BF370E70AC6868b95870Dfb",
    "0xb6319cC6c8c27A8F5dAF0dD3DF91EA35C4720dd7"
  ],
  "numDeployments": 5,
  "solcInputHash": "a7e03f4b5269c986a6ec43d2785abc30",
  "bytecode": "0x600c80546001600160b01b031916606f17905560e06040819052600060c08190526200002e91600d9162000164565b503480156200003c57600080fd5b5060405162003ebb38038062003ebb8339810160408190526200005f9162000223565b6040518060400160405280600881526020016749726f6e42616e6b60c01b8152506040518060400160405280600281526020016124a160f11b815250828282828080620000bb620000b56200011060201b60201c565b62000114565b6001600160a01b031660805250508151620000de90600a90602085019062000164565b508051620000f490600b90602084019062000164565b5050506001600160a01b0390941660a052506200029f92505050565b3390565b600080546001600160a01b038381166001600160a01b0319831681178455604051919092169283917f8be0079c531659141344cd1fd0a4f28419497f9722a3daafe3b4186f6b6457e09190a35050565b828054620001729062000262565b90600052602060002090601f016020900481019282620001965760008555620001e1565b82601f10620001b157805160ff1916838001178555620001e1565b82800160010185558215620001e1579182015b82811115620001e1578251825591602001919060010190620001c4565b50620001ef929150620001f3565b5090565b5b80821115620001ef5760008155600101620001f4565b6001600160a01b03811681146200022057600080fd5b50565b600080604083850312156200023757600080fd5b825162000244816200020a565b602084015190925062000257816200020a565b809150509250929050565b600181811c908216806200027757607f821691505b602082108114156200029957634e487b7160e01b600052602260045260246000fd5b50919050565b60805160a051613bb06200030b60003960008181610924015281816111f2015261179001526000818161087f01528181610a8901528181610da801528181610e6801528181610f9401528181611131015281816119fe01528181611f48015261298f0152613bb06000f3fe60806040526004361061034f5760003560e01c80638c8d4c59116101c6578063c4af1c0b116100f7578063eb8d72b711610095578063f2fde38b1161006f578063f2fde38b14610a13578063f5ecbdbc14610a33578063fbba623b14610a53578063fc0c546a14610a7357600080fd5b8063eb8d72b7146109b9578063eb9253c0146109d9578063ed629c5c146109f957600080fd5b8063d1deba1f116100d1578063d1deba1f14610946578063dd62ed3e14610959578063df2a5b3b14610979578063eab45d9c1461099957600080fd5b8063c4af1c0b146108d7578063cbed8b9c146108f2578063d07c1f3e1461091257600080fd5b8063a457c2d711610164578063a9059cbb1161013e578063a9059cbb1461084d578063b353aaa71461086d578063baf3292d146108a1578063c4461834146108c157600080fd5b8063a457c2d7146107fa578063a496ec3b1461081a578063a6c3d1651461082d57600080fd5b80639358928b116101a05780639358928b14610790578063950c8a74146107a557806395d89b41146107c55780639f38369a146107da57600080fd5b80638c8d4c591461071a5780638cfd8f5c1461073a5780638da5cb5b1461077257600080fd5b80633d8b38f6116102a05780635b8c41e61161023e57806370a082311161021857806370a082311461068f578063715018a6146106c55780637533d788146106da578063856925cc146106fa57600080fd5b80635b8c41e6146105e257806366ad5c8a146106315780636b32628b1461065157600080fd5b8063447705151161027a578063447705151461057f578063454b0608146105945780634c42899a146105a757806351905636146105cf57600080fd5b80633d8b38f6146105125780633f1f4fa41461053257806342d65a8d1461055f57600080fd5b806310ddb1371161030d578063272bd384116102e7578063272bd3841461048c5780632a205e3d146104a1578063313ce567146104d657806339509351146104f257600080fd5b806310ddb1371461042d57806318160ddd1461044d57806323b872dd1461046c57600080fd5b80621d35671461035457806301ffc9a71461037657806306fdde03146103ab57806307e0db17146103cd578063095ea7b3146103ed5780630df374831461040d575b600080fd5b34801561036057600080fd5b5061037461036f36600461302c565b610a86565b005b34801561038257600080fd5b506103966103913660046130c1565b610cb7565b60405190151581526020015b60405180910390f35b3480156103b757600080fd5b506103c0610cf5565b6040516103a29190613143565b3480156103d957600080fd5b506103746103e8366004613156565b610d87565b3480156103f957600080fd5b50610396610408366004613188565b610e10565b34801561041957600080fd5b506103746104283660046131b4565b610e28565b34801561043957600080fd5b50610374610448366004613156565b610e47565b34801561045957600080fd5b506009545b6040519081526020016103a2565b34801561047857600080fd5b506103966104873660046131d2565b610e9f565b34801561049857600080fd5b506103c0610ec3565b3480156104ad57600080fd5b506104c16104bc366004613221565b610f51565b604080519283526020830191909152016103a2565b3480156104e257600080fd5b50604051601281526020016103a2565b3480156104fe57600080fd5b5061039661050d366004613188565b611024565b34801561051e57600080fd5b5061039661052d3660046132c1565b611046565b34801561053e57600080fd5b5061045e61054d366004613156565b60036020526000908152604090205481565b34801561056b57600080fd5b5061037461057a3660046132c1565b611112565b34801561058b57600080fd5b5061045e600081565b6103746105a2366004613315565b611198565b3480156105b357600080fd5b506105bc600081565b60405161ffff90911681526020016103a2565b6103746105dd36600461332e565b6113a5565b3480156105ee57600080fd5b5061045e6105fd366004613464565b6005602090815260009384526040808520845180860184018051928152908401958401959095209452929052825290205481565b34801561063d57600080fd5b5061037461064c36600461302c565b61142a565b34801561065d57600080fd5b50600c54610677906201000090046001600160a01b031681565b6040516001600160a01b0390911681526020016103a2565b34801561069b57600080fd5b5061045e6106aa366004613506565b6001600160a01b031660009081526007602052604090205490565b3480156106d157600080fd5b50610374611506565b3480156106e657600080fd5b506103c06106f5366004613156565b61151a565b34801561070657600080fd5b50610374610715366004613506565b611533565b34801561072657600080fd5b50610374610735366004613156565b611565565b34801561074657600080fd5b5061045e610755366004613523565b600260209081526000928352604080842090915290825290205481565b34801561077e57600080fd5b506000546001600160a01b0316610677565b34801561079c57600080fd5b5061045e611585565b3480156107b157600080fd5b50600454610677906001600160a01b031681565b3480156107d157600080fd5b506103c0611595565b3480156107e657600080fd5b506103c06107f5366004613156565b6115a4565b34801561080657600080fd5b50610396610815366004613188565b6116bb565b61037461082836600461355c565b611736565b34801561083957600080fd5b506103746108483660046132c1565b6118e1565b34801561085957600080fd5b50610396610868366004613188565b611974565b34801561087957600080fd5b506106777f000000000000000000000000000000000000000000000000000000000000000081565b3480156108ad57600080fd5b506103746108bc366004613506565b611982565b3480156108cd57600080fd5b5061045e61271081565b3480156108e357600080fd5b50600c546105bc9061ffff1681565b3480156108fe57600080fd5b5061037461090d36600461358e565b6119df565b34801561091e57600080fd5b506106777f000000000000000000000000000000000000000000000000000000000000000081565b61037461095436600461302c565b611a69565b34801561096557600080fd5b5061045e610974366004613600565b611c7f565b34801561098557600080fd5b5061037461099436600461362e565b611caa565b3480156109a557600080fd5b506103746109b436600461365e565b611d5c565b3480156109c557600080fd5b506103746109d43660046132c1565b611da5565b3480156109e557600080fd5b506103746109f4366004613188565b611dff565b348015610a0557600080fd5b506006546103969060ff1681565b348015610a1f57600080fd5b50610374610a2e366004613506565b611e9e565b348015610a3f57600080fd5b506103c0610a4e36600461367b565b611f17565b348015610a5f57600080fd5b50610374610a6e3660046136cc565b611fc8565b348015610a7f57600080fd5b5030610677565b337f00000000000000000000000000000000000000000000000000000000000000006001600160a01b031614610b035760405162461bcd60e51b815260206004820152601e60248201527f4c7a4170703a20696e76616c696420656e64706f696e742063616c6c6572000060448201526064015b60405180910390fd5b61ffff861660009081526001602052604081208054610b219061370d565b80601f0160208091040260200160405190810160405280929190818152602001828054610b4d9061370d565b8015610b9a5780601f10610b6f57610100808354040283529160200191610b9a565b820191906000526020600020905b815481529060010190602001808311610b7d57829003601f168201915b50505050509050805186869050148015610bb5575060008151115b8015610bdd575080516020820120604051610bd39088908890613748565b6040518091039020145b610c385760405162461bcd60e51b815260206004820152602660248201527f4c7a4170703a20696e76616c696420736f757263652073656e64696e6720636f6044820152651b9d1c9858dd60d21b6064820152608401610afa565b610cae8787878080601f01602080910402602001604051908101604052809392919081815260200183838082843760009201919091525050604080516020601f8a018190048102820181019092528881528a935091508890889081908401838280828437600092019190915250611fdc92505050565b50505050505050565b60006001600160e01b031982161580610ce057506001600160e01b031982166336372b0760e01b145b80610cef5750610cef82612055565b92915050565b6060600a8054610d049061370d565b80601f0160208091040260200160405190810160405280929190818152602001828054610d309061370d565b8015610d7d5780601f10610d5257610100808354040283529160200191610d7d565b820191906000526020600020905b815481529060010190602001808311610d6057829003601f168201915b5050505050905090565b610d8f61208a565b6040516307e0db1760e01b815261ffff821660048201527f00000000000000000000000000000000000000000000000000000000000000006001600160a01b0316906307e0db17906024015b600060405180830381600087803b158015610df557600080fd5b505af1158015610e09573d6000803e3d6000fd5b5050505050565b600033610e1e8185856120e4565b5060019392505050565b610e3061208a565b61ffff909116600090815260036020526040902055565b610e4f61208a565b6040516310ddb13760e01b815261ffff821660048201527f00000000000000000000000000000000000000000000000000000000000000006001600160a01b0316906310ddb13790602401610ddb565b600033610ead858285612208565b610eb885858561227c565b506001949350505050565b600d8054610ed09061370d565b80601f0160208091040260200160405190810160405280929190818152602001828054610efc9061370d565b8015610f495780601f10610f1e57610100808354040283529160200191610f49565b820191906000526020600020905b815481529060010190602001808311610f2c57829003601f168201915b505050505081565b600080600080898989604051602001610f6d9493929190613781565b60408051601f198184030181529082905263040a7bb160e41b825291506001600160a01b037f000000000000000000000000000000000000000000000000000000000000000016906340a7bb1090610fd3908d90309086908c908c908c906004016137b0565b6040805180830381865afa158015610fef573d6000803e3d6000fd5b505050506040513d601f19601f820116820180604052508101906110139190613806565b925092505097509795505050505050565b600033610e1e8185856110378383611c7f565b6110419190613840565b6120e4565b61ffff8316600090815260016020526040812080548291906110679061370d565b80601f01602080910402602001604051908101604052809291908181526020018280546110939061370d565b80156110e05780601f106110b5576101008083540402835291602001916110e0565b820191906000526020600020905b8154815290600101906020018083116110c357829003601f168201915b5050505050905083836040516110f7929190613748565b60405180910390208180519060200120149150509392505050565b61111a61208a565b6040516342d65a8d60e01b81526001600160a01b037f000000000000000000000000000000000000000000000000000000000000000016906342d65a8d9061116a90869086908690600401613858565b600060405180830381600087803b15801561118457600080fd5b505af1158015610cae573d6000803e3d6000fd5b306000908152600760205260409020548111156111f05760405162461bcd60e51b81526020600482015260166024820152753737ba1032b737bab3b4103732bb9034b12a37b5b2b760511b6044820152606401610afa565b7f00000000000000000000000000000000000000000000000000000000000000006001600160a01b03166323b872dd336112326000546001600160a01b031690565b6040516001600160e01b031960e085901b1681526001600160a01b03928316600482015291166024820152604481018490526064016020604051808303816000875af1158015611286573d6000803e3d6000fd5b505050506040513d601f19601f820116820180604052508101906112aa9190613876565b506112b630338361227c565b6040516001600160601b03193360601b16602082015260009060340160405160208183030381529060405290506113a133600c60009054906101000a900461ffff16838533600c60029054906101000a90046001600160a01b0316600d805461131e9061370d565b80601f016020809104026020016040519081016040528092919081815260200182805461134a9061370d565b80156113975780601f1061136c57610100808354040283529160200191611397565b820191906000526020600020905b81548152906001019060200180831161137a57829003601f168201915b5050505050612427565b5050565b61141f898989898080601f01602080910402602001604051908101604052809392919081815260200183838082843760009201919091525050604080516020601f8a018190048102820181019092528881528c93508b92508a918a908a908190840183828082843760009201919091525061242792505050565b505050505050505050565b3330146114885760405162461bcd60e51b815260206004820152602660248201527f4e6f6e626c6f636b696e674c7a4170703a2063616c6c6572206d7573742062656044820152650204c7a4170760d41b6064820152608401610afa565b6114fe8686868080601f01602080910402602001604051908101604052809392919081815260200183838082843760009201919091525050604080516020601f8901819004810282018101909252878152899350915087908790819084018382808284376000920191909152506124ce92505050565b505050505050565b61150e61208a565b6115186000612535565b565b60016020526000908152604090208054610ed09061370d565b61153b61208a565b600c80546001600160a01b03909216620100000262010000600160b01b0319909216919091179055565b61156d61208a565b600c805461ffff191661ffff92909216919091179055565b600061159060095490565b905090565b6060600b8054610d049061370d565b61ffff81166000908152600160205260408120805460609291906115c79061370d565b80601f01602080910402602001604051908101604052809291908181526020018280546115f39061370d565b80156116405780601f1061161557610100808354040283529160200191611640565b820191906000526020600020905b81548152906001019060200180831161162357829003601f168201915b505050505090508051600014156116995760405162461bcd60e51b815260206004820152601d60248201527f4c7a4170703a206e6f20747275737465642070617468207265636f72640000006044820152606401610afa565b6116b46000601483516116ac9190613893565b839190612585565b9392505050565b600033816116c98286611c7f565b9050838110156117295760405162461bcd60e51b815260206004820152602560248201527f45524332303a2064656372656173656420616c6c6f77616e63652062656c6f77604482015264207a65726f60d81b6064820152608401610afa565b610eb882868684036120e4565b3060009081526007602052604090205483111561178e5760405162461bcd60e51b81526020600482015260166024820152753737ba1032b737bab3b4103732bb9034b12a37b5b2b760511b6044820152606401610afa565b7f00000000000000000000000000000000000000000000000000000000000000006001600160a01b03166323b872dd336117d06000546001600160a01b031690565b6040516001600160e01b031960e085901b1681526001600160a01b03928316600482015291166024820152604481018690526064016020604051808303816000875af1158015611824573d6000803e3d6000fd5b505050506040513d601f19601f820116820180604052508101906118489190613876565b5061185430338561227c565b6040516001600160601b03193360601b16602082015260009060340160408051808303601f19018152600c546020601f87018190048102850181019093528584529093506118db92339261ffff83169286928a9286926201000090046001600160a01b031691908b908b908190840183828082843760009201919091525061242792505050565b50505050565b6118e961208a565b8181306040516020016118fe939291906138aa565b60408051601f1981840301815291815261ffff8516600090815260016020908152919020825161193393919290910190612eab565b507f8c0400cfe2d1199b1a725c78960bcc2a344d869b80590d0f2bd005db15a572ce83838360405161196793929190613858565b60405180910390a1505050565b600033610e1e81858561227c565b61198a61208a565b600480546001600160a01b0319166001600160a01b0383169081179091556040519081527f5db758e995a17ec1ad84bdef7e8c3293a0bd6179bcce400dff5d4c3d87db726b906020015b60405180910390a150565b6119e761208a565b6040516332fb62e760e21b81526001600160a01b037f0000000000000000000000000000000000000000000000000000000000000000169063cbed8b9c90611a3b90889088908890889088906004016138cb565b600060405180830381600087803b158015611a5557600080fd5b505af115801561141f573d6000803e3d6000fd5b61ffff86166000908152600560205260408082209051611a8c9088908890613748565b90815260408051602092819003830190206001600160401b03871660009081529252902054905080611b0c5760405162461bcd60e51b815260206004820152602360248201527f4e6f6e626c6f636b696e674c7a4170703a206e6f2073746f726564206d65737360448201526261676560e81b6064820152608401610afa565b808383604051611b1d929190613748565b604051809103902014611b7c5760405162461bcd60e51b815260206004820152602160248201527f4e6f6e626c6f636b696e674c7a4170703a20696e76616c6964207061796c6f616044820152601960fa1b6064820152608401610afa565b61ffff87166000908152600560205260408082209051611b9f9089908990613748565b90815260408051602092819003830181206001600160401b038916600090815290845282902093909355601f88018290048202830182019052868252611c37918991899089908190840183828082843760009201919091525050604080516020601f8a018190048102820181019092528881528a9350915088908890819084018382808284376000920191909152506124ce92505050565b7fc264d91f3adc5588250e1551f547752ca0cfa8f6b530d243b9f9f4cab10ea8e58787878785604051611c6e959493929190613904565b60405180910390a150505050505050565b6001600160a01b03918216600090815260086020908152604080832093909416825291909152205490565b611cb261208a565b60008111611cfa5760405162461bcd60e51b81526020600482015260156024820152744c7a4170703a20696e76616c6964206d696e47617360581b6044820152606401610afa565b61ffff83811660008181526002602090815260408083209487168084529482529182902085905581519283528201929092529081018290527f9d5c7c0b934da8fefa9c7760c98383778a12dfbfc0c3b3106518f43fb9508ac090606001611967565b611d6461208a565b6006805460ff19168215159081179091556040519081527f1584ad594a70cbe1e6515592e1272a987d922b097ead875069cebe8b40c004a4906020016119d4565b611dad61208a565b61ffff83166000908152600160205260409020611dcb908383612f2f565b507ffa41487ad5d6728f0b19276fa1eddc16558578f5109fc39d2dc33c3230470dab83838360405161196793929190613858565b611e0761208a565b816001600160a01b031663a9059cbb611e286000546001600160a01b031690565b6040516001600160e01b031960e084901b1681526001600160a01b039091166004820152602481018490526044016020604051808303816000875af1158015611e75573d6000803e3d6000fd5b505050506040513d601f19601f82011682018060405250810190611e999190613876565b505050565b611ea661208a565b6001600160a01b038116611f0b5760405162461bcd60e51b815260206004820152602660248201527f4f776e61626c653a206e6577206f776e657220697320746865207a65726f206160448201526564647265737360d01b6064820152608401610afa565b611f1481612535565b50565b604051633d7b2f6f60e21b815261ffff808616600483015284166024820152306044820152606481018290526060907f00000000000000000000000000000000000000000000000000000000000000006001600160a01b03169063f5ecbdbc90608401600060405180830381865afa158015611f97573d6000803e3d6000fd5b505050506040513d6000823e601f3d908101601f19168201604052611fbf919081019061398c565b95945050505050565b611fd061208a565b611e99600d8383612f2f565b60008061203f5a60966366ad5c8a60e01b8989898960405160240161200494939291906139c0565b60408051601f198184030181529190526020810180516001600160e01b03166001600160e01b03199093169290921790915230929190612692565b91509150816114fe576114fe868686868561271c565b60006001600160e01b03198216630a72677560e11b1480610cef57506301ffc9a760e01b6001600160e01b0319831614610cef565b6000546001600160a01b031633146115185760405162461bcd60e51b815260206004820181905260248201527f4f776e61626c653a2063616c6c6572206973206e6f7420746865206f776e65726044820152606401610afa565b6001600160a01b0383166121465760405162461bcd60e51b8152602060048201526024808201527f45524332303a20617070726f76652066726f6d20746865207a65726f206164646044820152637265737360e01b6064820152608401610afa565b6001600160a01b0382166121a75760405162461bcd60e51b815260206004820152602260248201527f45524332303a20617070726f766520746f20746865207a65726f206164647265604482015261737360f01b6064820152608401610afa565b6001600160a01b0383811660008181526008602090815260408083209487168084529482529182902085905590518481527f8c5be1e5ebec7d5bd14f71427d1e84f3dd0314c0f7b2291e5b200ac8c7c3b925910160405180910390a3505050565b60006122148484611c7f565b905060001981146118db578181101561226f5760405162461bcd60e51b815260206004820152601d60248201527f45524332303a20696e73756666696369656e7420616c6c6f77616e63650000006044820152606401610afa565b6118db84848484036120e4565b6001600160a01b0383166122e05760405162461bcd60e51b815260206004820152602560248201527f45524332303a207472616e736665722066726f6d20746865207a65726f206164604482015264647265737360d81b6064820152608401610afa565b6001600160a01b0382166123425760405162461bcd60e51b815260206004820152602360248201527f45524332303a207472616e7366657220746f20746865207a65726f206164647260448201526265737360e81b6064820152608401610afa565b6001600160a01b038316600090815260076020526040902054818110156123ba5760405162461bcd60e51b815260206004820152602660248201527f45524332303a207472616e7366657220616d6f756e7420657863656564732062604482015265616c616e636560d01b6064820152608401610afa565b6001600160a01b0380851660008181526007602052604080822086860390559286168082529083902080548601905591517fddf252ad1be2c89b69c2b068fc378daa952ba7f163c4a11628f55a4df523b3ef9061241a9086815260200190565b60405180910390a36118db565b6124358660008360006127b9565b600061244388888888612833565b9050600080878360405160200161245c939291906139fe565b604051602081830303815290604052905061247b888287878734612865565b886001600160a01b03168861ffff167f39a4c66499bcf4b56d79f0dde8ed7a9d4925a0df55825206b2b8531e202be0d089856040516124bb929190613a2b565b60405180910390a3505050505050505050565b602081015161ffff81166124ed576124e885858585612a0b565b610e09565b60405162461bcd60e51b815260206004820152601c60248201527f4f4654436f72653a20756e6b6e6f776e207061636b65742074797065000000006044820152606401610afa565b600080546001600160a01b038381166001600160a01b0319831681178455604051919092169283917f8be0079c531659141344cd1fd0a4f28419497f9722a3daafe3b4186f6b6457e09190a35050565b60608161259381601f613840565b10156125d25760405162461bcd60e51b815260206004820152600e60248201526d736c6963655f6f766572666c6f7760901b6044820152606401610afa565b6125dc8284613840565b845110156126205760405162461bcd60e51b8152602060048201526011602482015270736c6963655f6f75744f66426f756e647360781b6044820152606401610afa565b60608215801561263f5760405191506000825260208201604052612689565b6040519150601f8416801560200281840101858101878315602002848b0101015b81831015612678578051835260209283019201612660565b5050858452601f01601f1916604052505b50949350505050565b6000606060008060008661ffff166001600160401b038111156126b7576126b76133f7565b6040519080825280601f01601f1916602001820160405280156126e1576020820181803683370190505b50905060008087516020890160008d8df191503d925086831115612703578692505b828152826000602083013e909890975095505050505050565b8180519060200120600560008761ffff1661ffff1681526020019081526020016000208560405161274d9190613a4d565b9081526040805191829003602090810183206001600160401b0388166000908152915220919091557fe183f33de2837795525b4792ca4cd60535bd77c53b7e7030060bfcf5734d6b0c906127aa9087908790879087908790613a69565b60405180910390a15050505050565b60065460ff16156127d5576127d084848484612a95565b6118db565b8151156118db5760405162461bcd60e51b815260206004820152602660248201527f4f4654436f72653a205f61646170746572506172616d73206d7573742062652060448201526532b6b83a3c9760d11b6064820152608401610afa565b6000336001600160a01b038616811461285157612851868285612208565b61285b8684612b74565b5090949350505050565b61ffff8616600090815260016020526040812080546128839061370d565b80601f01602080910402602001604051908101604052809291908181526020018280546128af9061370d565b80156128fc5780601f106128d1576101008083540402835291602001916128fc565b820191906000526020600020905b8154815290600101906020018083116128df57829003601f168201915b5050505050905080516000141561296e5760405162461bcd60e51b815260206004820152603060248201527f4c7a4170703a2064657374696e6174696f6e20636861696e206973206e6f742060448201526f61207472757374656420736f7572636560801b6064820152608401610afa565b612979878751612ca8565b60405162c5803160e81b81526001600160a01b037f0000000000000000000000000000000000000000000000000000000000000000169063c58031009084906129d0908b9086908c908c908c908c90600401613ac7565b6000604051808303818588803b1580156129e957600080fd5b505af11580156129fd573d6000803e3d6000fd5b505050505050505050505050565b60008082806020019051810190612a229190613b21565b909350915060009050612a358382612d16565b9050612a42878284612d7b565b9150806001600160a01b03168761ffff167fbf551ec93859b170f9b2141bd9298bf3f64322c6f7beb2543a0cb669834118bf84604051612a8491815260200190565b60405180910390a350505050505050565b6000612aa083612d8e565b61ffff808716600090815260026020908152604080832093891683529290529081205491925090612ad2908490613840565b905060008111612b245760405162461bcd60e51b815260206004820152601a60248201527f4c7a4170703a206d696e4761734c696d6974206e6f74207365740000000000006044820152606401610afa565b808210156114fe5760405162461bcd60e51b815260206004820152601b60248201527f4c7a4170703a20676173206c696d697420697320746f6f206c6f7700000000006044820152606401610afa565b6001600160a01b038216612bd45760405162461bcd60e51b815260206004820152602160248201527f45524332303a206275726e2066726f6d20746865207a65726f206164647265736044820152607360f81b6064820152608401610afa565b6001600160a01b03821660009081526007602052604090205481811015612c485760405162461bcd60e51b815260206004820152602260248201527f45524332303a206275726e20616d6f756e7420657863656564732062616c616e604482015261636560f01b6064820152608401610afa565b6001600160a01b03831660008181526007602090815260408083208686039055600980548790039055518581529192917fddf252ad1be2c89b69c2b068fc378daa952ba7f163c4a11628f55a4df523b3ef910160405180910390a3505050565b61ffff821660009081526003602052604090205480612cc657506127105b80821115611e995760405162461bcd60e51b815260206004820181905260248201527f4c7a4170703a207061796c6f61642073697a6520697320746f6f206c617267656044820152606401610afa565b6000612d23826014613840565b83511015612d6b5760405162461bcd60e51b8152602060048201526015602482015274746f416464726573735f6f75744f66426f756e647360581b6044820152606401610afa565b500160200151600160601b900490565b6000612d878383612dea565b5092915050565b6000602282511015612de25760405162461bcd60e51b815260206004820152601c60248201527f4c7a4170703a20696e76616c69642061646170746572506172616d73000000006044820152606401610afa565b506022015190565b6001600160a01b038216612e405760405162461bcd60e51b815260206004820152601f60248201527f45524332303a206d696e7420746f20746865207a65726f2061646472657373006044820152606401610afa565b8060096000828254612e529190613840565b90915550506001600160a01b0382166000818152600760209081526040808320805486019055518481527fddf252ad1be2c89b69c2b068fc378daa952ba7f163c4a11628f55a4df523b3ef910160405180910390a35050565b828054612eb79061370d565b90600052602060002090601f016020900481019282612ed95760008555612f1f565b82601f10612ef257805160ff1916838001178555612f1f565b82800160010185558215612f1f579182015b82811115612f1f578251825591602001919060010190612f04565b50612f2b929150612fa3565b5090565b828054612f3b9061370d565b90600052602060002090601f016020900481019282612f5d5760008555612f1f565b82601f10612f765782800160ff19823516178555612f1f565b82800160010185558215612f1f579182015b82811115612f1f578235825591602001919060010190612f88565b5b80821115612f2b5760008155600101612fa4565b61ffff81168114611f1457600080fd5b60008083601f840112612fda57600080fd5b5081356001600160401b03811115612ff157600080fd5b60208301915083602082850101111561300957600080fd5b9250929050565b80356001600160401b038116811461302757600080fd5b919050565b6000806000806000806080878903121561304557600080fd5b863561305081612fb8565b955060208701356001600160401b038082111561306c57600080fd5b6130788a838b01612fc8565b909750955085915061308c60408a01613010565b945060608901359150808211156130a257600080fd5b506130af89828a01612fc8565b979a9699509497509295939492505050565b6000602082840312156130d357600080fd5b81356001600160e01b0319811681146116b457600080fd5b60005b838110156131065781810151838201526020016130ee565b838111156118db5750506000910152565b6000815180845261312f8160208601602086016130eb565b601f01601f19169290920160200192915050565b6020815260006116b46020830184613117565b60006020828403121561316857600080fd5b81356116b481612fb8565b6001600160a01b0381168114611f1457600080fd5b6000806040838503121561319b57600080fd5b82356131a681613173565b946020939093013593505050565b600080604083850312156131c757600080fd5b82356131a681612fb8565b6000806000606084860312156131e757600080fd5b83356131f281613173565b9250602084013561320281613173565b929592945050506040919091013590565b8015158114611f1457600080fd5b600080600080600080600060a0888a03121561323c57600080fd5b873561324781612fb8565b965060208801356001600160401b038082111561326357600080fd5b61326f8b838c01612fc8565b909850965060408a0135955060608a0135915061328b82613213565b909350608089013590808211156132a157600080fd5b506132ae8a828b01612fc8565b989b979a50959850939692959293505050565b6000806000604084860312156132d657600080fd5b83356132e181612fb8565b925060208401356001600160401b038111156132fc57600080fd5b61330886828701612fc8565b9497909650939450505050565b60006020828403121561332757600080fd5b5035919050565b600080600080600080600080600060e08a8c03121561334c57600080fd5b893561335781613173565b985060208a013561336781612fb8565b975060408a01356001600160401b038082111561338357600080fd5b61338f8d838e01612fc8565b909950975060608c0135965060808c013591506133ab82613173565b90945060a08b0135906133bd82613173565b90935060c08b013590808211156133d357600080fd5b506133e08c828d01612fc8565b915080935050809150509295985092959850929598565b634e487b7160e01b600052604160045260246000fd5b604051601f8201601f191681016001600160401b0381118282101715613435576134356133f7565b604052919050565b60006001600160401b03821115613456576134566133f7565b50601f01601f191660200190565b60008060006060848603121561347957600080fd5b833561348481612fb8565b925060208401356001600160401b0381111561349f57600080fd5b8401601f810186136134b057600080fd5b80356134c36134be8261343d565b61340d565b8181528760208385010111156134d857600080fd5b816020840160208301376000602083830101528094505050506134fd60408501613010565b90509250925092565b60006020828403121561351857600080fd5b81356116b481613173565b6000806040838503121561353657600080fd5b823561354181612fb8565b9150602083013561355181612fb8565b809150509250929050565b60008060006040848603121561357157600080fd5b8335925060208401356001600160401b038111156132fc57600080fd5b6000806000806000608086880312156135a657600080fd5b85356135b181612fb8565b945060208601356135c181612fb8565b93506040860135925060608601356001600160401b038111156135e357600080fd5b6135ef88828901612fc8565b969995985093965092949392505050565b6000806040838503121561361357600080fd5b823561361e81613173565b9150602083013561355181613173565b60008060006060848603121561364357600080fd5b833561364e81612fb8565b9250602084013561320281612fb8565b60006020828403121561367057600080fd5b81356116b481613213565b6000806000806080858703121561369157600080fd5b843561369c81612fb8565b935060208501356136ac81612fb8565b925060408501356136bc81613173565b9396929550929360600135925050565b600080602083850312156136df57600080fd5b82356001600160401b038111156136f557600080fd5b61370185828601612fc8565b90969095509350505050565b600181811c9082168061372157607f821691505b6020821081141561374257634e487b7160e01b600052602260045260246000fd5b50919050565b8183823760009101908152919050565b81835281816020850137506000828201602090810191909152601f909101601f19169091010190565b61ffff8516815260606020820152600061379f606083018587613758565b905082604083015295945050505050565b61ffff871681526001600160a01b038616602082015260a0604082018190526000906137de90830187613117565b851515606084015282810360808401526137f9818587613758565b9998505050505050505050565b6000806040838503121561381957600080fd5b505080516020909101519092909150565b634e487b7160e01b600052601160045260246000fd5b600082198211156138535761385361382a565b500190565b61ffff84168152604060208201526000611fbf604083018486613758565b60006020828403121561388857600080fd5b81516116b481613213565b6000828210156138a5576138a561382a565b500390565b8284823760609190911b6001600160601b0319169101908152601401919050565b600061ffff8088168352808716602084015250846040830152608060608301526138f9608083018486613758565b979650505050505050565b61ffff86168152608060208201526000613922608083018688613758565b6001600160401b0394909416604083015250606001529392505050565b600082601f83011261395057600080fd5b815161395e6134be8261343d565b81815284602083860101111561397357600080fd5b6139848260208301602087016130eb565b949350505050565b60006020828403121561399e57600080fd5b81516001600160401b038111156139b457600080fd5b6139848482850161393f565b61ffff851681526080602082015260006139dd6080830186613117565b6001600160401b038516604084015282810360608401526138f98185613117565b61ffff84168152606060208201526000613a1b6060830185613117565b9050826040830152949350505050565b604081526000613a3e6040830185613117565b90508260208301529392505050565b60008251613a5f8184602087016130eb565b9190910192915050565b61ffff8616815260a060208201526000613a8660a0830187613117565b6001600160401b03861660408401528281036060840152613aa78186613117565b90508281036080840152613abb8185613117565b98975050505050505050565b61ffff8716815260c060208201526000613ae460c0830188613117565b8281036040840152613af68188613117565b6001600160a01b0387811660608601528616608085015283810360a085015290506137f98185613117565b600080600060608486031215613b3657600080fd5b8351613b4181612fb8565b60208501519093506001600160401b03811115613b5d57600080fd5b613b698682870161393f565b92505060408401519050925092509256fea26469706673582212201f506cb820d5ce7badeaa146eb26a6ea448a28d9df762d3fc05f7c1f4613242c64736f6c634300080c0033",
  "devdoc": {
    "kind": "dev",
    "methods": {
      "allowance(address,address)": {
        "details": "See {IERC20-allowance}."
      },
      "approve(address,uint256)": {
        "details": "See {IERC20-approve}. NOTE: If `amount` is the maximum `uint256`, the allowance is not updated on `transferFrom`. This is semantically equivalent to an infinite approval. Requirements: - `spender` cannot be the zero address."
      },
      "balanceOf(address)": {
        "details": "See {IERC20-balanceOf}."
      },
      "circulatingSupply()": {
        "details": "returns the circulating amount of tokens on current chain"
      },
      "decimals()": {
        "details": "Returns the number of decimals used to get its user representation. For example, if `decimals` equals `2`, a balance of `505` tokens should be displayed to a user as `5.05` (`505 / 10 ** 2`). Tokens usually opt for a value of 18, imitating the relationship between Ether and Wei. This is the default value returned by this function, unless it's overridden. NOTE: This information is only used for _display_ purposes: it in no way affects any of the arithmetic of the contract, including {IERC20-balanceOf} and {IERC20-transfer}."
      },
      "decreaseAllowance(address,uint256)": {
        "details": "Atomically decreases the allowance granted to `spender` by the caller. This is an alternative to {approve} that can be used as a mitigation for problems described in {IERC20-approve}. Emits an {Approval} event indicating the updated allowance. Requirements: - `spender` cannot be the zero address. - `spender` must have allowance for the caller of at least `subtractedValue`."
      },
      "estimateSendFee(uint16,bytes,uint256,bool,bytes)": {
        "details": "estimate send token `_tokenId` to (`_dstChainId`, `_toAddress`) _dstChainId - L0 defined chain id to send tokens too _toAddress - dynamic bytes array which contains the address to whom you are sending tokens to on the dstChain _amount - amount of the tokens to transfer _useZro - indicates to use zro to pay L0 fees _adapterParam - flexible bytes array to indicate messaging adapter services in L0"
      },
      "increaseAllowance(address,uint256)": {
        "details": "Atomically increases the allowance granted to `spender` by the caller. This is an alternative to {approve} that can be used as a mitigation for problems described in {IERC20-approve}. Emits an {Approval} event indicating the updated allowance. Requirements: - `spender` cannot be the zero address."
      },
      "name()": {
        "details": "Returns the name of the token."
      },
      "owner()": {
        "details": "Returns the address of the current owner."
      },
      "renounceOwnership()": {
        "details": "Leaves the contract without owner. It will not be possible to call `onlyOwner` functions. Can only be called by the current owner. NOTE: Renouncing ownership will leave the contract without an owner, thereby disabling any functionality that is only available to the owner."
      },
      "sendFrom(address,uint16,bytes,uint256,address,address,bytes)": {
        "details": "send `_amount` amount of token to (`_dstChainId`, `_toAddress`) from `_from` `_from` the owner of token `_dstChainId` the destination chain identifier `_toAddress` can be any size depending on the `dstChainId`. `_amount` the quantity of tokens in wei `_refundAddress` the address LayerZero refunds if too much message fee is sent `_zroPaymentAddress` set to address(0x0) if not paying in ZRO (LayerZero Token) `_adapterParams` is a flexible bytes array to indicate messaging adapter services"
      },
      "symbol()": {
        "details": "Returns the symbol of the token, usually a shorter version of the name."
      },
      "token()": {
        "details": "returns the address of the ERC20 token"
      },
      "totalSupply()": {
        "details": "See {IERC20-totalSupply}."
      },
      "transfer(address,uint256)": {
        "details": "See {IERC20-transfer}. Requirements: - `to` cannot be the zero address. - the caller must have a balance of at least `amount`."
      },
      "transferFrom(address,address,uint256)": {
        "details": "See {IERC20-transferFrom}. Emits an {Approval} event indicating the updated allowance. This is not required by the EIP. See the note at the beginning of {ERC20}. NOTE: Does not update the allowance if the current allowance is the maximum `uint256`. Requirements: - `from` and `to` cannot be the zero address. - `from` must have a balance of at least `amount`. - the caller must have allowance for ``from``'s tokens of at least `amount`."
      },
      "transferOwnership(address)": {
        "details": "Transfers ownership of the contract to a new account (`newOwner`). Can only be called by the current owner."
      }
    },
    "version": 1
  },
  "userdoc": {
    "kind": "user",
    "methods": {},
    "version": 1
  },
  "storageLayout": {
    "storage": [
      {
        "astId": 1983,
        "contract": "contracts/IBOFT.sol:IBOFT",
        "label": "_owner",
        "offset": 0,
        "slot": "0",
        "type": "t_address"
      },
      {
        "astId": 215,
        "contract": "contracts/IBOFT.sol:IBOFT",
        "label": "trustedRemoteLookup",
        "offset": 0,
        "slot": "1",
        "type": "t_mapping(t_uint16,t_bytes_storage)"
      },
      {
        "astId": 221,
        "contract": "contracts/IBOFT.sol:IBOFT",
        "label": "minDstGasLookup",
        "offset": 0,
        "slot": "2",
        "type": "t_mapping(t_uint16,t_mapping(t_uint16,t_uint256))"
      },
      {
        "astId": 225,
        "contract": "contracts/IBOFT.sol:IBOFT",
        "label": "payloadSizeLimitLookup",
        "offset": 0,
        "slot": "3",
        "type": "t_mapping(t_uint16,t_uint256)"
      },
      {
        "astId": 227,
        "contract": "contracts/IBOFT.sol:IBOFT",
        "label": "precrime",
        "offset": 0,
        "slot": "4",
        "type": "t_address"
      },
      {
        "astId": 764,
        "contract": "contracts/IBOFT.sol:IBOFT",
        "label": "failedMessages",
        "offset": 0,
        "slot": "5",
        "type": "t_mapping(t_uint16,t_mapping(t_bytes_memory_ptr,t_mapping(t_uint64,t_bytes32)))"
      },
      {
        "astId": 1229,
        "contract": "contracts/IBOFT.sol:IBOFT",
        "label": "useCustomAdapterParams",
        "offset": 0,
        "slot": "6",
        "type": "t_bool"
      },
      {
        "astId": 2104,
        "contract": "contracts/IBOFT.sol:IBOFT",
        "label": "_balances",
        "offset": 0,
        "slot": "7",
        "type": "t_mapping(t_address,t_uint256)"
      },
      {
        "astId": 2110,
        "contract": "contracts/IBOFT.sol:IBOFT",
        "label": "_allowances",
        "offset": 0,
        "slot": "8",
        "type": "t_mapping(t_address,t_mapping(t_address,t_uint256))"
      },
      {
        "astId": 2112,
        "contract": "contracts/IBOFT.sol:IBOFT",
        "label": "_totalSupply",
        "offset": 0,
        "slot": "9",
        "type": "t_uint256"
      },
      {
        "astId": 2114,
        "contract": "contracts/IBOFT.sol:IBOFT",
        "label": "_name",
        "offset": 0,
        "slot": "10",
        "type": "t_string_storage"
      },
      {
        "astId": 2116,
        "contract": "contracts/IBOFT.sol:IBOFT",
        "label": "_symbol",
        "offset": 0,
        "slot": "11",
        "type": "t_string_storage"
      },
      {
        "astId": 2850,
        "contract": "contracts/IBOFT.sol:IBOFT",
        "label": "destChainId",
        "offset": 0,
        "slot": "12",
        "type": "t_uint16"
      },
      {
        "astId": 2856,
        "contract": "contracts/IBOFT.sol:IBOFT",
        "label": "zroPaymentAddress",
        "offset": 2,
        "slot": "12",
        "type": "t_address"
      },
      {
        "astId": 2862,
        "contract": "contracts/IBOFT.sol:IBOFT",
        "label": "defaultAdapterParams",
        "offset": 0,
        "slot": "13",
        "type": "t_bytes_storage"
      }
    ],
    "types": {
      "t_address": {
        "encoding": "inplace",
        "label": "address",
        "numberOfBytes": "20"
      },
      "t_bool": {
        "encoding": "inplace",
        "label": "bool",
        "numberOfBytes": "1"
      },
      "t_bytes32": {
        "encoding": "inplace",
        "label": "bytes32",
        "numberOfBytes": "32"
      },
      "t_bytes_memory_ptr": {
        "encoding": "bytes",
        "label": "bytes",
        "numberOfBytes": "32"
      },
      "t_bytes_storage": {
        "encoding": "bytes",
        "label": "bytes",
        "numberOfBytes": "32"
      },
      "t_mapping(t_address,t_mapping(t_address,t_uint256))": {
        "encoding": "mapping",
        "key": "t_address",
        "label": "mapping(address => mapping(address => uint256))",
        "numberOfBytes": "32",
        "value": "t_mapping(t_address,t_uint256)"
      },
      "t_mapping(t_address,t_uint256)": {
        "encoding": "mapping",
        "key": "t_address",
        "label": "mapping(address => uint256)",
        "numberOfBytes": "32",
        "value": "t_uint256"
      },
      "t_mapping(t_bytes_memory_ptr,t_mapping(t_uint64,t_bytes32))": {
        "encoding": "mapping",
        "key": "t_bytes_memory_ptr",
        "label": "mapping(bytes => mapping(uint64 => bytes32))",
        "numberOfBytes": "32",
        "value": "t_mapping(t_uint64,t_bytes32)"
      },
      "t_mapping(t_uint16,t_bytes_storage)": {
        "encoding": "mapping",
        "key": "t_uint16",
        "label": "mapping(uint16 => bytes)",
        "numberOfBytes": "32",
        "value": "t_bytes_storage"
      },
      "t_mapping(t_uint16,t_mapping(t_bytes_memory_ptr,t_mapping(t_uint64,t_bytes32)))": {
        "encoding": "mapping",
        "key": "t_uint16",
        "label": "mapping(uint16 => mapping(bytes => mapping(uint64 => bytes32)))",
        "numberOfBytes": "32",
        "value": "t_mapping(t_bytes_memory_ptr,t_mapping(t_uint64,t_bytes32))"
      },
      "t_mapping(t_uint16,t_mapping(t_uint16,t_uint256))": {
        "encoding": "mapping",
        "key": "t_uint16",
        "label": "mapping(uint16 => mapping(uint16 => uint256))",
        "numberOfBytes": "32",
        "value": "t_mapping(t_uint16,t_uint256)"
      },
      "t_mapping(t_uint16,t_uint256)": {
        "encoding": "mapping",
        "key": "t_uint16",
        "label": "mapping(uint16 => uint256)",
        "numberOfBytes": "32",
        "value": "t_uint256"
      },
      "t_mapping(t_uint64,t_bytes32)": {
        "encoding": "mapping",
        "key": "t_uint64",
        "label": "mapping(uint64 => bytes32)",
        "numberOfBytes": "32",
        "value": "t_bytes32"
      },
      "t_string_storage": {
        "encoding": "bytes",
        "label": "string",
        "numberOfBytes": "32"
      },
      "t_uint16": {
        "encoding": "inplace",
        "label": "uint16",
        "numberOfBytes": "2"
      },
      "t_uint256": {
        "encoding": "inplace",
        "label": "uint256",
        "numberOfBytes": "32"
      },
      "t_uint64": {
        "encoding": "inplace",
        "label": "uint64",
        "numberOfBytes": "8"
      }
    }
  }
}